:020000040800F2
:10000000A00B002095040008950200089702000844
:100010009B0200089F020008A302000800000000E5
:10002000000000000000000000000000A70200081F
:10003000A902000800000000AB020008AD020008A1
:10004000AF040008AF040008AF040008AF040008C4
:10005000AF040008AF040008AF040008AF040008B4
:10006000AF040008AF040008AF040008AF040008A4
:10007000AF040008AF040008AF040008AF04000894
:10008000AF040008AF040008AF040008AF04000884
:10009000AF040008AF040008AF0400089104000892
:1000A000AF040008AF040008AF040008AF04000864
:1000B000E5280008FD28000815290008AF040008FD
:1000C000AF040008AF040008AF040008AF04000844
:1000D000AF040008AF040008DD210008DF25000898
:1000E000AF040008AF040008AF040008AF04000824
:1000F000AF040008AF040008AF040008AF04000814
:10010000AF040008AF0400082D290008AF04000860
:10011000AF040008AF040008AF040008AF040008F3
:10012000AF040008AF040008AF040008AF040008E3
:1001300000F002F800F06AF80AA090E8000C82448F
:100140008344AAF10107DA4501D100F05FF8AFF26C
:10015000090EBAE80F0013F0010F18BFFB1A43F0A5
:100160000103184748650000686500000A444FF025
:10017000000C10F8013B13F0070408BF10F8014B06
:100180001D1108BF10F8015B641E05D010F8016B4B
:10019000641E01F8016BF9D113F0080F1EBF10F8AF
:1001A000014BAD1C0C1B09D16D1E58BF01F801CBD2
:1001B000FAD505E014F8016B01F8016B6D1EF9D555
:1001C0009142D6D37047000000230024002500266A
:1001D000103A28BF78C1FBD8520728BF30C148BFAA
:1001E0000B607047662905F0E284642903F0B88645
:1001F000002070471FB504F0C9F904000020002159
:1002000004F02AFFE0601FBD10B510BD04F0DAFA5B
:100210001146FFF7EFFF00F00FF804F0F8FA03B40F
:10022000FFF7F2FF03BC01F06FFF000030BF72B6B2
:1002300062B680F30888704701F014FF012002F0D5
:100240003EF902F08BFB03F06DF9002002F00AF892
:10025000002141F61F4002F0B3FB4FF4E13002F001
:1002600064F902F083FD02F0C9F902F02BFA02F002
:1002700073FA02F0BBFA40F2DC5001F02FFF08E005
:1002800002F02AFF03F044FA03F06EFB012003F0B2
:1002900094FBF5E7704700BFFEE700BFFEE700BF35
:1002A000FEE700BFFEE770477047704770470000E9
:1002B0000CB50020019000906C48006840F480303C
:1002C0006A49086000BF6948006800F40030009087
:1002D0000198401C0190009818B90198B0F5A06FE2
:1002E000F1D16248006800F4003010B101200090A4
:1002F00001E0002000900098012843D15C4800688C
:1003000040F010005A4908600846006820F00300D9
:1003100008600846006840F00200086053484068E2
:10032000524948600846406848600846406840F4C2
:10033000806048600846406820F47C1048600846A9
:10034000406840F4E81048600846006840F080705B
:10035000086000BF4548006800F000700028F9D030
:100360004248406820F00300404948600846406821
:1003700040F00200486000BF3C48406800F00C00BC
:100380000828F9D10CBD10B5FFF792FF10BD10B5CC
:100390003648006840F0010034490860084640686B
:1003A00034490840314948600846006832490840ED
:1003B0002E4908600846006820F48020086008463E
:1003C000406820F4FE0048604FF41F008860FFF78B
:1003D000DAFF4FF000602949086010BD10B5002118
:1003E00000200022214B5B6803F00C0121B104299D
:1003F00006D0082928D107E0214B224C236027E0B2
:100400001F4B204C236023E0184B5B6803F47010F3
:10041000164B5B6803F48032022303EB904022B951
:10042000194B4343174C23600DE0104B5B6803F4FA
:10043000003323B1144B4343124C236003E0104BB1
:100440004343104C236003E00D4B0E4C236000BF70
:1004500000BF064B5B68C3F303130C4CE15C094B14
:100460001B68CB40074C236010BD00000010024009
:10047000002002400000FFF8FFFFF6FE08ED00E05C
:1004800000127A00F000002000093D00F400002076
:10049000002070470948804709480047FEE7FEE70B
:1004A000FEE7FEE7FEE7FEE7FEE7FEE7FEE7FEE724
:1004B00004480549054A064B704700008F030008B1
:1004C00031010008A0050020A00B0020A00700209B
:1004D000A007002031490143314A1160704770B5CF
:1004E000002100230F22C47804B32D4C246804F4A7
:1004F000E064C4F5E064210AC1F10403CA40447811
:1005000004FA03F18478144021430901254C06784C
:10051000A155047804F01F050124AC4005786D1145
:10052000AD0005F1E025C5F8004109E0047804F0CC
:100530001F050124AC401C4D0678761145F8264075
:1005400070BD1A4A0A400243154B1B1F1A607047C0
:1005500039B1134A121D12680243114B1B1D1A6058
:1005600006E00F4A121D126882430D4B1B1D1A60D4
:100570007047042808D14FF0E021096941F00401D7
:100580004FF0E022116107E04FF0E021096921F00E
:1005900004014FF0E0221161704700000000FA05ED
:1005A0000CED00E000E400E080E100E080FFFF1FD0
:1005B00010B5012000F014FC002000F011FC10BD6B
:1005C0002A49086070472949091F08607047274970
:1005D00084310860704701460020254A10884FF694
:1005E0007F4210400843224A108070470146002095
:1005F0001F4A10884FF68072104008431C4A108032
:10060000704708B500220092194A2C3A0092009ACD
:1006100002440092009A116008BD08B5014600200E
:10062000009013482C3800900098084400900098DF
:10063000008808BD0D489C300068C0B270470C4867
:100640000830008840F001000949083108807047EF
:100650000648A0300068C0B27047054808300088DE
:1006600040F00200024908310880704704860D42BC
:100670002C6C004010B50446CC48844208D10121BE
:10068000042000F093FB0021042000F08FFB46E0E3
:10069000C748844208D10121082000F087FB0021CF
:1006A000082000F083FB3AE0C248844208D10121CF
:1006B000102000F07BFB0021102000F077FB2EE0E3
:1006C000BD48844208D10121202000F06FFB0021A9
:1006D000202000F06BFB22E0B848844208D10121C1
:1006E000402000F063FB0021402000F05FFB16E09B
:1006F000B348844208D10121802000F057FB00213B
:10070000802000F053FB0AE0AE48844207D101216B
:10071000801500F04BFB0021A01500F047FB10BD39
:1007200010B50121084600F041FB0021012000F036
:100730003DFB10BD2DE9F0410246002500260020BA
:1007400000230024002791F803C00CF00F0591F856
:1007500003C00CF0100CBCF1000F03D091F802C0E4
:100760004CEA050591F800C0BCF1000F31D01468C7
:1007700000202BE04FF0010C0CFA00F3B1F800C0A0
:100780000CEA03069E4220D183004FF00F0C0CFAB6
:1007900003F7BC4305FA03FC4CEA040491F803C0D8
:1007A000BCF1280F06D14FF0010C0CFA00FCC2F886
:1007B00014C00AE091F803C0BCF1480F05D14FF016
:1007C000010C0CFA00FCC2F810C0401C0828D1D360
:1007D0001460B1F800C0BCF1FF0F34DD5468002094
:1007E0002EE000F1080C4FF0010808FA0CF3B1F804
:1007F00000C00CEA03069E4221D183004FF00F0C8B
:100800000CFA03F7BC4305FA03FC4CEA040491F824
:1008100003C0BCF1280F05D100F1080C08FA0CF850
:10082000C2F8148091F803C0BCF1480F07D100F161
:10083000080C4FF0010808FA0CF8C2F81080401CB0
:100840000828CED35460BDE8F0814FF6FF710180D7
:10085000022181700421C170704702460020936814
:100860000B400BB1012000E0002070470146886872
:1008700080B2704702460020D3680B400BB10120C4
:1008800000E0002070470146C86880B270470161EF
:100890007047416170470AB1016100E041617047F2
:1008A000C16070474FF480320A4382618161826186
:1008B00082698269704702460020434B18684FF6F0
:1008C0008073184040EA021008433F4B186070479D
:1008D0003E49C8617047F0B50A4600230024002154
:1008E000002500F00046B6F1004F02D1364EF16906
:1008F00001E0354E7168C0F3034583B200F4401641
:10090000B6F5401F08D121F070612F4E766826F0B1
:1009100070662D4F7E6012E000F48016B6F5801FE1
:1009200006D1032606FA05F4A14341F0706106E002
:10093000460D360103FA06F6B14341F0706122B16B
:10094000460D360103FA06F6314300F00046B6F1D3
:10095000004F02D11C4EF16101E01B4E7160F0BDF1
:1009600030B500228B071C0F0F2303FA04F2164B3D
:1009700008338C1053F824309343134C08348D10F3
:1009800044F8253023468C1053F824308C07240F6C
:1009900000FA04F423430C4C08348D1044F825303D
:1009A00030BD0A49DC310860704700000008014092
:1009B000000C0140001001400014014000180140EB
:1009C000001C0140002001400000014000002042C6
:1009D00010B50121080700F0F6F900214FF0805012
:1009E00000F0F1F910BD2A490862704728490861F2
:1009F000704701460020274A106820F0E0000843B5
:100A0000106070472249A0310860704710B5024657
:100A10000020204B186820F00300104318601E4B84
:100A20001B6843F004031C4C2360012901D130BF33
:100A300000E020BF184B1B6823F00403164C236012
:100A400010BD1448006840F00400124908600846D0
:100A5000006840F0020008600F48006840F00400A1
:100A60000D49086000BF00BF30BF7047014600203D
:100A7000084A52680A400AB1012000E0002070478D
:100A80000449096841EA8001024A11607047000088
:100A900000000E420070004010ED00E0DF480068EA
:100AA00040F00100DD49086008464068DC49084024
:100AB000DA49486008460068DA490840D7490860C2
:100AC0000846006820F4802008600846406820F44A
:100AD000FE0048604FF41F0088607047CF490968E6
:100AE00021F48031CD4A11601146096821F480213A
:100AF0001160B0F5803F03D0B0F5802F0ED106E035
:100B0000C649096841F48031C44A116007E0C3490D
:100B1000096841F4A021C14A116000E000BF00BF94
:100B2000704710B501460022002300204A11012A17
:100B300002D1BA4C236806E0022A02D1B74C236ADC
:100B400001E0B64C636A01F01F02012494401C408E
:100B50000CB1012000E0002010BD38B5002000904D
:100B60000024002500BF3120FFF7DBFF0546009879
:100B7000401C00900098B0F5A06F01D0002DF2D07D
:100B80003120FFF7CEFF08B1012400E00024204609
:100B900038BD01460020A14A106820F0F80040EA64
:100BA000C10010607047A0490860704702460020ED
:100BB0009A4B586820F47C1042EA01031843974B83
:100BC0005860704798490866704701460020934A6C
:100BD000506820F003000843506070478F48406819
:100BE00000F00C007047014600208C4A506820F04D
:100BF000F00008435060704701460020874A506863
:100C000020F4E06008435060704701460020834AAA
:100C1000506820F4605040EAC1005060704729B12C
:100C20007E4A527A02437D4B5A7204E07B4A527AE2
:100C300082437A4B5A7270477B49D83108607047BB
:100C400001460020754A506820F440400843506037
:100C500070470021714A20321170704A82F82010CA
:100C6000012802D004280AD104E001216B4A203275
:100C7000117005E00521694A2032117000E000BFC3
:100C800000BF70476949086070476449096A0143B9
:100C9000624A11627047654944390860704730B54F
:100CA00000210022002400235C4D6D6805F00C013A
:100CB00021B1042905D0082923D105E05C4D056048
:100CC00022E05B4D05601FE0544D6D6805F4701225
:100CD000524D6D6805F48034022505EB92421CB933
:100CE000544D554305600BE04C4D6D6805F40035DF
:100CF0001DB1504D5543056002E04D4D5543056013
:100D000002E04B4D056000BF00BF444D6D6805F02B
:100D1000F0010909484D6B5C0568DD4045603F4DB9
:100D20006D6805F4E061090A434D6B5C4568DD4080
:100D300085603A4D6D6805F46051C90A3E4D6B5CA3
:100D40004568DD40C560354D6D6805F44041890B4F
:100D50003A4D6B5CC568B5FBF3F5056130BD29B153
:100D60002E4A526902432D4B5A6104E02B4A5269C4
:100D700082432A4B5A61704729B1284A926902433B
:100D8000264B9A6104E0254A92698243234B9A617B
:100D9000704729B1214AD2690243204BDA6104E04D
:100DA0001E4AD26982431D4BDA61704729B11B4A42
:100DB000D2680243194BDA6004E0184AD2688243D1
:100DC000164BDA60704729B1144A12690243134B7B
:100DD0001A6104E0114A12698243104B1A6170478C
:100DE00012494039086070470F49C86470470B4981
:100DF000C87170470948406A40F0807007494862EE
:100E0000704701460020054A92680A400AB1012055
:100E100000E00020704701498872704700100240CE
:100E20000000FFF8FFFFF6FE00004242800442424D
:100E300000127A0000093D00040100201401002086
:100E400010B50446FE48844208D10121C014FFF7C2
:100E5000ADFF0021E014FFF7A9FFC4E0B4F1804F1B
:100E600008D101210846FFF7AEFF00210120FFF75E
:100E7000AAFFB8E0F348844208D101210220FFF71D
:100E8000A2FF00210220FFF79EFFACE0EE48844263
:100E900008D101210420FFF796FF00210420FFF76D
:100EA00092FFA0E0E948844208D101210820FFF721
:100EB0008AFF00210820FFF786FF94E0E44884427F
:100EC00008D101211020FFF77EFF00211020FFF73D
:100ED0007AFF88E0DF48844208D101212020FFF713
:100EE00072FF00212020FFF76EFF7CE0DA48844289
:100EF00008D101214014FFF759FF00216014FFF7CA
:100F000055FF70E0D548844209D10121C804FFF79C
:100F10004DFF00214FF40020FFF748FF63E0D04869
:100F2000844209D101210805FFF740FF00214FF459
:100F30008010FFF73BFF56E0CA48844209D10121E7
:100F40004805FFF733FF00214FF40010FFF72EFF95
:100F500049E0C548844208D101214020FFF733FF12
:100F600000214020FFF72FFF3DE0C048844208D118
:100F700001218020FFF727FF00218020FFF723FFBA
:100F800031E0BB48844208D101218015FFF71BFFE7
:100F90000021A015FFF717FF25E0B648844209D1CC
:100FA00001210804FFF702FF00214FF48030FFF712
:100FB000FDFE18E0B048844209D101214804FFF742
:100FC000F5FE00214FF40030FFF7F0FE0BE0AB48D8
:100FD000844208D101218804FFF7E8FE00214FF484
:100FE0008020FFF7E3FE10BD00220288944B984258
:100FF0000ED0994B98420BD0B0F1804F08D0914B56
:10100000984205D0904B984202D0904B984204D120
:101010004FF68F731A404B881A438D4B984207D076
:101020008C4B984204D04FF6FF431A40CB881A43AA
:1010300002808B8883850B880385814B98420BD077
:10104000854B984208D08B4B984205D08A4B9842EA
:1010500002D08A4B984201D10B7A03860123838206
:10106000704770B5002400220023058C4FF6FE76F1
:1010700035400584028C8388048B4FF68F752C4095
:10108000B51E2C400D882C43751E2A400D892A431D
:101090004D882A436A4DA8420BD06F4DA84208D014
:1010A000744DA84205D0744DA84202D0734DA84299
:1010B00013D14FF6F7752A404D892A434FF6FB7539
:1010C0002A408D882A434FF6FF652B404FF6FF5587
:1010D0002B408D892B43CD892B4383800483CD887E
:1010E0008586028470BD70B5002400220023058C23
:1010F0004FF6EF7635400584028C8388048B48F6E2
:10110000FF752C404FF6FF452C400D884FF6FF76BB
:1011100006EA05252C434FF6DF752A400D8906EABD
:1011200005152A434D8806EA05152A43444DA84271
:1011300002D0494DA8421DD14FF67F752A404D89F6
:101140004FF6FF7606EA05152A434FF6BF752A408B
:101150008D8806EA05152A434FF6FF352B404FF2DE
:10116000FF752B408D8906EA85052B43CD8906EA5C
:1011700085052B4383800483CD880587028470BD59
:1011800070B5002400220023058C4FF6FF66354021
:101190000584028C8388848B4FF68F752C404FF624
:1011A000FC752C400D882C434FF6FF552A400D89C5
:1011B0004FF6FF7606EA05252A434D8806EA0525FF
:1011C0002A431F4DA84202D0234DA8421DD14FF201
:1011D000FF752A404D894FF6FF7606EA05252A431A
:1011E0004FF6FF352A408D8806EA05252A434EF63C
:1011F000FF752B404DF6FF752B408D8906EA0515CE
:101200002B43CD8906EA05152B4383808483CD8843
:101210008587028470BD70B5002200230024058CF0
:101220004EF6FF7635400584038C8488828B48F621
:10123000FF752A404FF6FF452A400D8820E0000048
:10124000002C01400004004000080040000C004059
:10125000001000400014004000340140004C0140E8
:10126000005001400054014000180040001C0040A4
:10127000002000400040014000440140004801407F
:101280004FF6FF7606EA05252A434DF6FF752B40FB
:101290000D8906EA05352B434D8806EA05352B43B3
:1012A000FA4DA84202D0FA4DA84208D14BF6FF757C
:1012B0002C408D894FF6FF7606EA85152C438480F5
:1012C0008283CD88A0F84050038470BD828B4FF29A
:1012D000FF331A408283828B4FF6FF7303EA0123A8
:1012E0001A4382837047F0B50C4615460022002150
:1012F0000026078C4EF6FF7C07EA0C070784828BDA
:10130000018C4FF6FF7707EA043640F6FF473A4074
:101310004FF6FF7707EA05273A434FF6FF7707EACC
:1013200003373A43D94FB8420ED0D94FB8420BD009
:10133000B0F1804F08D0D74FB84205D0D64FB84251
:1013400002D0D64FB84206D14DF6FF77394046F469
:101350008057394305E047F6FF57394044F480573A
:10136000394382830184F0BD828B4FF6F3731A40B8
:101370008283828B0A4382837047F0B50C46154600
:10138000002200210026078C4FF6FF6C07EA0C07AD
:101390000784828B018C4FF6FF7707EA04264FF60D
:1013A0000C773A404FF6FF7707EA03172F433A438B
:1013B000B64FB8420ED0B64FB8420BD0B0F1804F06
:1013C00008D0B44FB84205D0B34FB84202D0B34FA3
:1013D000B84206D14FF6FF57394046F4807739437B
:1013E00005E04FF2FF57394044F480773943828358
:1013F0000184F0BD028B4FF2FF331A400283028B4F
:101400004FF6FF7303EA01231A4302837047F0B5D6
:101410000C461546002200210026078C4FF6EF7C73
:1014200007EA0C070784028B018C4FF6FF7707EA67
:10143000041640F6FF473A404FF6FF7707EA0337B6
:101440003A434FF6FF7707EA05273A438F4FB842F2
:101450000ED08F4FB8420BD0B0F1804F08D08D4FD7
:10146000B84205D08C4FB84202D08C4FB84206D15A
:101470004FF6DF77394046F01007394305E04FF665
:101480005F77394044F01007394302830184F0BD8F
:10149000028B4FF6F3731A400283028B0A430283D6
:1014A0007047F0B50C46154600220021068C4FF619
:1014B000FE773E400684028B018C4FF60C7632405C
:1014C0007E1C06EA03162E433243704EB0420ED005
:1014D0006F4EB0420BD0B0F1804F08D06D4EB0428D
:1014E00005D06D4EB04202D06C4EB04206D14FF6E0
:1014F000FD76314044F00106314305E04FF6F576C4
:10150000314044F00106314302830184F0BD70B5DF
:1015100005460C465D4885420ED05D4885420BD09D
:10152000B5F1804F08D05B48854205D05A488542C6
:1015300002D05A48854200D100E000BF208850B94F
:101540002389A28861882846FFF7ABFFE1882846F7
:10155000FFF79EFF25E0208804280AD12389A2886E
:1015600061882846FFF753FFE1882846FFF742FFCE
:1015700017E0208808280AD12389A2886188284694
:10158000FFF7FBFEE1882846FFF7EEFE09E023891E
:10159000A28861882846FFF7A6FEE1882846FFF763
:1015A00095FE70BD2DE9F04105460C460026012749
:1015B000608808B9022600E00026A088012801D131
:1015C000022700E001272088A0B92389A28861882A
:1015D0002846FFF766FFE1882846FFF759FF238971
:1015E0003A4631462846FFF712FFE1882846FFF7C2
:1015F00001FF13E02389A28861882846FFF707FFCF
:10160000E1882846FFF7F6FE23893A463146284608
:10161000FFF747FFE1882846FFF73AFFBDE8F08172
:101620000A884B881A438B881A43CB881A430B8944
:101630001A434B891A438B891A43A0F844207047F8
:101640004FF6FF71818000210180C18041800172CD
:1016500070470021018041808180C18001814181EA
:101660008181C181704700210180418001218180F9
:101670000021C1800181704700210180418081806B
:10168000C18001814181818170470000002C0140AF
:10169000003401400004004000080040000C0040FD
:1016A00021B1028842F00102028004E002884FF674
:1016B000FE731A400280704731B1B0F8442042F402
:1016C0000042A0F8442005E0B0F84420C2F30E0226
:1016D000A0F8442070471AB183890B43838102E04C
:1016E00083898B43838170478182704741EA02037B
:1016F000A0F8483070471AB183890B43838102E018
:1017000083898B438381704701894FF6F8721140BA
:10171000018170470A46002101894FF68F731940F5
:1017200011430181704730B504460D4629462046D5
:10173000FFF7F0FF208940F00700208130BD2DE940
:10174000F04104460D4616461F46602D06D13B4625
:10175000012231462046FFF75AFE05E03B460122B2
:1017600031462046FFF79DFE29462046FFF7D2FF6F
:10177000208940F007002081BDE8F08130B50C469B
:1017800000210189C9B24FF6FF7505EA032515430B
:1017900025432943018130BD2DE9F04105460E4620
:1017A00017469846002443463A4631462846FFF7F6
:1017B000E5FF2C894FF6F870044044F007044FF61B
:1017C0008F70044044F070042C81BDE8F081F0B5C6
:1017D00004460D4616461F463B46324629462046DD
:1017E000FFF7CCFF208940F480402081F0BD0185C7
:1017F000828270470A46002101884FF68F73194094
:10180000114301807047F0B50C4615461E46002175
:10181000002200230189028B038C4FF6F8773940B0
:1018200021434FF6FC473A4040F201173A434FF646
:10183000DD773B404FF6FF7707EA06172F433B4320
:10184000018102830384F0BD0A460021018B4FF61B
:101850008F7319401143018370470A460021018BA1
:1018600048F6FF7319404FF6FF7303EA022319434A
:10187000018370470A460021818B4FF68F73194010
:101880001143818370470A460021818B48F6FF731C
:1018900019404FF6FF7303EA02231943818370470F
:1018A00021B1028842F08002028004E002884FF6F3
:1018B0007F731A400280704721B1828842F004028F
:1018C000828004E082884FF6FB731A408280704762
:1018D00021B1828842F00802828004E082884FF6BB
:1018E000F7731A408280704721B1828842F001026A
:1018F000828004E082884FF6FE731A40828070472F
:101900000A460021018B4FF6F773194011430183FA
:1019100070470A460021018B4FF2FF7319404FF6C2
:10192000FF7303EA02231943018370470A4600212B
:10193000818B4FF6F77319401143818370470A4634
:101940000021818B4FF2FF7319404FF6FF7303EABA
:1019500002231943818370470A460021018B4FF609
:10196000FB7319401143018370470A460021018B24
:101970004FF6FF3319404FF6FF7303EA0223194372
:10198000018370470A460021818B4FF6FB73194093
:101990001143818370470A460021818B4FF6FF3344
:1019A00019404FF6FF7303EA0223194381837047FE
:1019B0000A460021018B4FF67F73194011430183C2
:1019C00070470A460021018BC1F30E014FF6FF73E9
:1019D00003EA02231943018370470A460021818BE1
:1019E0004FF67F7319401143818370470A460021E7
:1019F000818BC1F30E014FF6FF7303EA02231943F3
:101A0000818370470A460021018C4FF6FD7319400F
:101A10001143018470470A460021018C4FF6F77389
:101A200019401143018470470A460021018C4FF68A
:101A3000DF7319404FF6FF7303EA02131943018461
:101A400070470A460021018C4FF67F7319404FF60C
:101A5000FF7303EA02131943018470470A46002109
:101A6000018C4FF6FF5319404FF6FF7303EA022330
:101A70001943018470470A460021018C4FF2FF731D
:101A800019404FF6FF7303EA02231943018470479C
:101A90000A460021018C4DF6FF7319404FF6FF7383
:101AA00003EA023319430184704730B5002301244F
:101AB0008C40A3B2048C9C430484048C02FA01F58C
:101AC000ADB22C43048430BD30B5002304248C40D7
:101AD000A3B2048C9C430484048C02FA01F5ADB2D9
:101AE0002C43048430BD70B5034600200024184602
:101AF000183001258D40ACB21D8CA5431D8409B161
:101B0000082909D100EB6100056825F07005056022
:101B10000568154305600EE00D1FC5F34E0528440A
:101B2000056825F4E045056005684FF6FF7606EA8E
:101B300002263543056070BD21B1028842F00202E1
:101B4000028004E002884FF6FD731A40028070475D
:101B500021B1028842F00402028004E002884FF6BC
:101B6000FB731A400280704721B1828842F08002E4
:101B7000828004E082884FF67F731A40828070472B
:101B800002884FF6F7731A40028002880A430280E7
:101B9000704782884FF68F731A40828082880A438A
:101BA0008280704702894FF6F8731A4002810289D9
:101BB0000A430281704702894FF67F731A400281FF
:101BC00002890A430281704781847047818570478A
:101BD000818670470187704781877047A0F8401061
:101BE000704702884FF6FF431A40028002880A437A
:101BF000028070470146888E70470146088F704703
:101C00000146888F70470146B1F840007047014691
:101C1000888C70470146088D704702460020138A61
:101C20000B400BB1012000E000207047CA43028244
:101C3000704730B50246002000230024158A05EACB
:101C40000103958905EA010413B10CB1012000E0FC
:101C5000002030BDCA4302827047000010B5044620
:101C6000FB48844209D101218803FFF79FF8002136
:101C70004FF48040FFF79AF832E0F648844209D1E9
:101C800001214804FFF79FF800214FF40030FFF7CF
:101C90009AF825E0F048844209D101218804FFF731
:101CA00092F800214FF48020FFF78DF818E0EB4800
:101CB000844209D10121C804FFF785F800214FF4BF
:101CC0000020FFF780F80BE0E548844208D10121AD
:101CD0000805FFF778F800214FF48010FFF773F83C
:101CE00010BD2DE9F04786B005460E460024A246F9
:101CF00000BFA1460027B08900B100BF2F462C8A43
:101D00004CF6FF700440F08804432C82AC894EF6F8
:101D1000F3100440B08831890843718908430443B3
:101D2000AC81AC8A4FF6FF400440B0890443AC82DA
:101D300001A8FEF7B4FFC648874202D1DDF810A023
:101D400001E0DDF80CA0A88900F4004040B10AEBE6
:101D5000CA0000EB0A1031684900B0FBF1F807E057
:101D60000AEBCA0000EB0A1031688900B0FBF1F8F9
:101D70006420B8FBF0F004012009642101FB108904
:101D8000A88900F4004040B1322000EBC900B0FB4C
:101D9000F1F000F00700044308E0322000EB0910E6
:101DA0006421B0FBF1F000F00F0004432C8106B079
:101DB000BDE8F0874FF41651016000218180C18099
:101DC00001810C21418100218181704710B50246BB
:101DD0000020108A4FF2FF0318400B884C882343E1
:101DE0008C882343CC8823431843108210BD0021E4
:101DF000018041808180C180704721B1828942F495
:101E00000052828104E082894DF6FF731A4082817C
:101E10007047F0B50346002400260025002040F658
:101E20006A17B94200D100BF1846C1F3421401F04D
:101E30001F06012707FA06F5012C01D10C3004E03A
:101E4000022C01D1103000E014301AB107682F4382
:101E5000076002E00768AF430760F0BD1AB1838AEC
:101E60000B43838202E0838A8B4383827047028A1A
:101E70004FF6F0731A400282028A0A4302827047C8
:101E800082894FF2FF731A40828182890A438281DC
:101E9000704721B1828942F00202828104E0828986
:101EA0004FF6FD731A4082817047028A4FF6DF7346
:101EB0001A400282028A0A430282704721B1028AD2
:101EC00042F48042028204E0028A4BF6FF731A4019
:101ED00002827047C1F308028280704701468888F9
:101EE000C0F308007047818941F00101818170478A
:101EF000028BD2B20283028B42EA01220283704734
:101F0000028B02F47F420283028B0A4302837047F2
:101F100021B1828A42F02002828204E0828A4FF656
:101F2000DF731A408282704721B1828A42F0100228
:101F3000828204E0828A4FF6EF731A4082827047F1
:101F400021B1828A42F00802828204E0828A4FF63E
:101F5000F7731A408282704721B1828942F40042AD
:101F6000828103E08289C2F30E028281704721B12F
:101F7000828A42F40062828204E0828A4FF2FF7316
:101F80001A4082827047828A4FF6FB731A4082821F
:101F9000828A0A438282704721B1828A42F0020219
:101FA000828204E0828A4FF6FD731A408282704773
:101FB00002460020B1F5007F00D100BF13880B401E
:101FC0000BB1012000E00020704701F40072B2F56F
:101FD000007F00D100BFCA430280704770B502463F
:101FE000002400230025002040F66A16B14200D1EB
:101FF00000BFC1F3421501F01F03012606FA03F3E7
:10200000012D02D19689334006E0022D02D1168AB5
:10201000334001E0968A33400C12012606FA04F49C
:102020001688344013B10CB1012000E0002070BDCF
:1020300010B50022002340F66A14A14200D100BF6F
:102040000A1201249440A3B2DC43048010BD0000B6
:10205000003801400044004000480040004C00406F
:102060000050004010B56FF00400FEF782FA2248DD
:1020700000682249B0FBF1F0214908700846007859
:1020800043F6095148434FF6FF7101EA80101D499C
:10209000088010BD01461A4A12784A434FF0E023E7
:1020A0005A6100229A611A46126942F001021A61CD
:1020B00000BF4FF0E022106900F001021AB100F4F5
:1020C0008032002AF5D04FF0E022126922F001029E
:1020D0004FF0E0231A6100229A61704710B5044660
:1020E00000BF4FF47A70FFF7D5FF201EA4F1010165
:1020F0008CB2F6D110BD0000F000002000127A0072
:10210000180100201A010020014600BF704700BFDF
:102110004C4A128802F04002002AF9D0C2B2494B60
:102120001B1D1A8070474849088000BF4649091F97
:10213000098801F040010029F8D0704710B586B039
:10214000044601210420FEF717FE01214804FEF792
:1021500020FE0420ADF8140003208DF8160018208E
:102160008DF8170005A93948FEF7E4FA0820ADF804
:10217000140004208DF8170005A93448FEF7DAFA98
:1021800026208DF8000000208DF8010001208DF838
:1021900002008DF803006846FEF7A1F901940020C3
:1021A000ADF80800ADF80A00ADF80C00ADF810006D
:1021B0000C20ADF80E0001A92348001FFFF791FD88
:1021C000012240F225512048001FFFF722FE012185
:1021D0001D48001FFFF711FE06B010BD10B540F2FC
:1021E00025511948001FFFF7F9FE10BD1848007867
:1021F000F8B1184800685A281BD00020144A107003
:1022000014480068012806DB12480068082802DC30
:10221000104801780BE00F480068412807DB0D48A3
:102220000068482803DC0B4800784038C1B20846F3
:102230007047084800685A2802D10120044A1070EB
:102240000020F5E700480040044400400008014039
:102250002401002020010020A34A0A400243A34B8E
:102260001A6070470146072323EA010212029F4BBE
:102270001B1D18684FF6FF0318409D4B1843104371
:102280009A4B1B1D186070472DE9F04107468846A0
:1022900014461D462846FFF7E5FFC5F1040007FA7E
:1022A00000F60F20284100EA0800064306F00F065A
:1022B000E21704EBD2625211920002F1E022D2F84E
:1022C00000212146E31704EBD3635B11A4EB431C0D
:1022D000012303FA0CF31A432046E31704EBD363FC
:1022E0005B119B0003F1E023C3F800218148005DEE
:1022F00040EA06107F490855BDE8F08170B50446F4
:102300000B46CE1701EB9676C6F38700CE1701EB8E
:102310009676B610A1EB8606B606350E764B9B690F
:1023200043F00103744EB3614FEAB63353F82030E3
:102330000F26AE40B343714E46F82030334653F873
:10234000203004FA05F61E436C4B43F820606C4BBA
:102350001B6801268E403343694E336002F001034F
:1023600043B1674B0C331B6801268E403343644EE8
:102370000C36336002F0020343B1614B08331E6830
:1023800001238B401E435E4B08331E6070BD00B5B9
:10239000002059490861C860142048610020886104
:1023A000C8610846006840F00100086008464068BF
:1023B000544908405049486008460068524908405E
:1023C0004D4908600846006820F4802008600846EF
:1023D000406820F4FE0048600020886000214FF033
:1023E0000060FFF739FF00BD10B5404808300068B5
:1023F00040F004003D49083108603F48C06940F0A2
:1024000080503D49C8614148406840F480703F4970
:1024100048600846006840F004000860084600680C
:1024200040F002000860FDF701FF10BD3048001DBC
:102430002E49091D0860704730B504460025FFF796
:10244000A6FF2D48006840F480302B49086000BF8B
:1024500029480068400C0028FAD04FF480602649D3
:102460004860A01EC4B20846406840EA8440486004
:102470000846406840F4803048602548006840F0D5
:102480003200234908601C48006840F080701A49F7
:10249000086000BF18480068400E0028FAD01648AF
:1024A000406840F002001449486005E01248406866
:1024B000C0F3870505F00305022DF7D130BD0146B5
:1024C00049060D4A926942F001020B4B9A610B4A90
:1024D000083A526822F0E062084B083B5A601A46FC
:1024E00052680A435A60704780FFFF1F08ED00E002
:1024F0000000FA0500E400E000100240080001407E
:10250000000401400000FFF8FFFFF6FE00700040ED
:10251000002002403649088000BF3549091F09885C
:1025200001F040010029F8D0704710B586B004468C
:1025300001210846FEF720FC01211020FEF71CFCBB
:1025400001218804FEF725FC01212A48FEF7C3F982
:102550004FF48060ADF8140003208DF816001820A9
:102560008DF8170005A92448FEF7E4F84FF4006041
:10257000ADF8140004208DF8170005A91E48FEF7D9
:10258000D9F827208DF8000000208DF801000120E7
:102590008DF802008DF803006846FDF7A0FF019456
:1025A0000020ADF80800ADF80A00ADF80C00ADF859
:1025B00010000C20ADF80E0001A90D48001FFFF718
:1025C00090FB012240F225510948001FFFF721FC32
:1025D00001210748001FFFF710FC06B010BD10B521
:1025E00040F225510248001FFFF7F8FC10BD000023
:1025F00004480040100014000010014000B587B0EE
:1026000001210846FEF7B8FB01210846FEF7C1FB91
:1026100001210420FEF7B0FB01210820FEF7ACFBEE
:102620000121C848FEF757F94FF40040ADF800000B
:1026300004208DF803006946C348FEF77BF80820A4
:10264000ADF8000004208DF803006946BF48FEF78E
:1026500071F804A8FEF7F4FF0020ADF810004FF663
:10266000FF70ADF814000020ADF81600ADF81200B0
:1026700004A94FF08040FEF7B7FC00231A4603215F
:102680004FF08040FFF7BFF801A8FEF7ECFF0A20EB
:10269000ADF80C0001A94007FEF739FF01218807BA
:1026A000FFF7C4FA012211469007FFF714F8002142
:1026B0004FF08040FFF788FA01218807FEF7F0FF0E
:1026C00007B000BD00B587B001210220FEF761FB15
:1026D00001210420FEF750FBC020ADF800000420CB
:1026E0008DF8030069469848FEF724F804A8FEF721
:1026F000A7FF0020ADF810004FF6FF70ADF81400F2
:102700000020ADF81600ADF8120004A99048FEF7BD
:102710006BFC00231A4603218D48FFF774F801A8CB
:10272000FEF7A1FF0A20ADF80C0001A98848FEF7CA
:10273000EEFE01218648FFF779FA0122114684480E
:10274000FEF7C9FF00218248FFF73EFA01218048C9
:10275000FEF7A6FF07B000BD00B587B00121042039
:10276000FEF717FB01210820FEF706FBC020ADF89D
:10277000000004208DF8030069467448FDF7DAFF75
:1027800004A8FEF75DFF0020ADF810004FF6FF70C3
:10279000ADF814000020ADF81600ADF8120004A941
:1027A0006C48FEF721FC00231A4603216948FFF715
:1027B0002AF801A8FEF757FF0A20ADF80C0001A97E
:1027C0006448FEF7A4FE01216248FFF72FFA0122B8
:1027D00011466048FEF77FFF00215E48FFF7F4F9DD
:1027E00001215C48FEF75CFF07B000BD00B587B073
:1027F00001210820FEF7CDFA01210420FEF7BCFAE2
:102800000320ADF8000004208DF8030069464E480F
:10281000FDF790FF04A8FEF713FF0020ADF81000AD
:102820004FF6FF70ADF814000020ADF81600ADF8BB
:10283000120004A94848FEF7D7FB00231A460321DB
:102840004548FEF7E0FF01A8FEF70DFF0A20ADF8AE
:102850000C0001A94048FEF75AFE01213E48FFF74F
:10286000E5F9012211463C48FEF735FF00213A48C0
:10287000FFF7AAF901213848FEF712FF07B000BDA3
:102880000146022906D003290DD0042914D00529B8
:1028900024D11AE04FF08042928C10B200224FF007
:1028A00080439A841CE02A4A2432128810B2002203
:1028B000274B24331A8013E0264A2432128810B2A0
:1028C0000022244B24331A800AE0234A243212883F
:1028D00010B20022204B24331A8001E0002000BFF8
:1028E00000BF70474FF08040008A4FF08040008A60
:1028F00020F001004FF080410882704714481030EA
:10290000008813481030008820F001001049103171
:10291000088070470F48103000880E48103000883B
:1029200020F001000B491031088070470A48103030
:10293000008809481030008820F001000649103155
:10294000088070470003180000080140000C014097
:102950000004004000080040000C004008B50121C0
:102960000820FEF709FA4FF40050ADF800001020DF
:102970008DF8030003208DF8020069460C48FDF72E
:10298000D9FE08BD18B900210A4A11600FE00A49B2
:102990000968491C084A1160814208D10549096843
:1029A000C943064AC2F8B4110021034A11607047B6
:1029B000000C0140B4812142280100200080214206
:1029C00030B589B005460C460121C802FEF7D4F99E
:1029D00001214803FEF7D0F901210420FEF7CCF9CC
:1029E00001211020FEF7C8F94FF47060ADF8200007
:1029F00018208DF8230003208DF8220008A94348F1
:102A0000FDF798FE4FF47070ADF8200018208DF897
:102A1000230003208DF8220008A93D48FDF78AFE17
:102A2000ADF81850ADF814400020ADF81A00ADF81C
:102A3000160005A93748FEF7D7FA05A93648FEF76C
:102A4000D3FA6020ADF804000120ADF806000020A4
:102A5000ADF80A00ADF80C0001A92E48FEF701FB05
:102A600001A92C48FEF73FFB01A92A48FEF788FB85
:102A700001A92848FEF7CFFB01A92748FEF7F1FA84
:102A800001A92548FEF72FFB01A92348FEF778FB93
:102A900001A92148FEF7BFFB01211E48FEF70CFEED
:102AA00001211D48FEF708FE08211A48FEF728FFFD
:102AB00008211848FEF72DFF08211648FEF736FFBB
:102AC00008211448FEF73BFF08211348FEF718FFC2
:102AD00008211148FEF71DFF08210F48FEF726FFC9
:102AE00008210D48FEF72BFF01210A48FEF7D8FE0A
:102AF00001210948FEF7D4FE01210648FEF7D0FD6A
:102B000001210548FEF7CCFD09B030BD00080140A9
:102B100000100140002C01400034014010B5044673
:102B2000002C0EDD4FF4E1504D490880C4F5E15012
:102B30004C4908804C48046001684CA001F004FA3C
:102B40000DE04FF4E1504749088004F5E150444955
:102B5000088045480460016844A001F0F5F910BD03
:102B600010B50446002C10DD4FF4E1503D49091D1D
:102B70000880C4F5E1503A49091D08803E480460C8
:102B800001683EA001F0E0F90FE04FF4E150344954
:102B9000091D088004F5E1503249091D08803648B6
:102BA0000460016835A001F0CFF910BD10B50446EE
:102BB000002C10DD4FF4E1502A4908310880C4F59B
:102BC000E1502749083108802F48046001682FA090
:102BD00001F0BAF90FE04FF4E150214908310880C3
:102BE00004F5E1501F490831088027480460016856
:102BF00026A001F0A9F910BD10B50446002C10DD87
:102C00004FF4E15016490C310880C4F5E1501549E4
:102C10000C31088020480460016820A001F094F97C
:102C20000FE04FF4E1500F490C31088004F5E150FA
:102C30000B490C31088018480460016817A001F0A6
:102C400083F910BD10B50020FFF768FF0020FFF7E3
:102C500087FF0020FFF7AAFF0020FFF7CDFF10BD80
:102C600034340140342C0140680000206D6F746FD3
:102C7000725F413D256409006C0000206D6F746F28
:102C8000725F423D25640900700000206D6F746F13
:102C9000725F433D25640900740000206D6F746FFE
:102CA000725F443D25640A0010B50A461AB101233B
:102CB000FE4C236002E00023FC4C2360002117E05F
:102CC0000023FA4C343C236000F0800323B101233D
:102CD000F64C0834236003E00023F44C08342360EE
:102CE0000123F24C343C23604306180E4B1CD9B22E
:102CF0000829E5DB0123ED4C236010BD30B500242D
:102D00001CE004F1B001C8B20021FFF7CDFF0021A3
:102D10000846FFF7C9FF00211020FFF7C5FF002577
:102D200008E0E34901EBC501085D0121FFF7BCFFA5
:102D3000681CC5B2802DF4DB601CC4B2082CE0DB3B
:102D400030BD30B500240CE0002506E00020D84955
:102D500001EBC5010855681CC5B2802DF6DB601C6F
:102D6000C4B2082CF0DBFFF7C9FF30BD08B5012164
:102D70001020FEF701F801210846FDF7FDFF4EF295
:102D80000100ADF8000010208DF8030002208DF83E
:102D900002006946C748FDF7CDFC0120FDF723FE80
:102DA0000020FDF756FF0020FDF70DFC0020FDF789
:102DB0001AFE0020BD49091D08606420FFF78EF946
:102DC0000120BD49C1F8B8010021AE20FFF76CFF1A
:102DD0000021D520FFF768FF00215020FFF764FF96
:102DE0000021A820FFF760FF00213F20FFF75CFFD4
:102DF0000021D320FFF758FF00210846FFF754FFBA
:102E000000214020FFF750FF00218D20FFF74CFFED
:102E100000211420FFF748FF00212020FFF744FF86
:102E200000210220FFF740FF0021A120FFF73CFF17
:102E30000021C020FFF738FF0021DA20FFF734FF20
:102E400000211220FFF730FF00218120FFF72CFF27
:102E50000021EF20FFF728FF0021D920FFF724FFF2
:102E60000021F120FFF720FF0021DB20FFF71CFFEE
:102E700000213020FFF718FF0021A420FFF714FFE6
:102E80000021A620FFF710FF0021AF20FFF70CFF65
:102E9000FFF757FF08BD00B500218D20FFF704FFA5
:102EA00000211020FFF700FF0021AE20FFF7FCFEFD
:102EB00000BD00B500218D20FFF7F6FE0021142093
:102EC000FFF7F2FE0021AF20FFF7EEFE00BDF0B5E8
:102ED000144600267F2801DC3F2900DDF0BD0B46AB
:102EE000CF1701EB5777FF10C7F10707FAB2CF17DB
:102EF00001EB5777FF10A1EBC707FDB2C5F107073C
:102F00000123BB40DEB24CB1694B03EBC0039B5CB9
:102F10003343674F07EBC007BB5408E0644B03EB38
:102F2000C0039B5CB343624F07EBC007BB5400BFB9
:102F3000D4E72DE9F04F80460C4615461E46A346C1
:102F4000A5F12000C5B200273EE00C2E07D105EB0D
:102F500045005A4901EB800010F8079004E05848FA
:102F600000EB051010F807904FF0000A26E009F07A
:102F7000800028B121464046099AFFF7A8FF09E0E2
:102F8000099808B9012000E0002002462146404689
:102F9000FFF79DFF4FEA49604FEA1069601CC4B219
:102FA000A4EB0B00B04205D15C4608F1010000F033
:102FB000FF0806E00AF1010000F0FF0ABAF1080F6D
:102FC000D5DB00BF781CC7B2B742BEDBBDE8F08FCF
:102FD00078B505460E46144618E07A2D03DD002527
:102FE00006F11000C6B23A2E04DD00200546064662
:102FF000FFF7A7FE0120009022780C2331462846D7
:10300000FFF797FF05F10800C5B2641C207800287F
:10301000E3D178BD10B50246012000E050430B1EFD
:10302000A1F10104E1B2F9D110BD2DE9FF4F81B04A
:10303000074691461E460E9D4FF0000A002446E0CA
:10304000301B401EC1B20A20FFF7E4FFB9FBF0F0CD
:103050000A21B0FBF1F201FB1208BAF1000F16D100
:10306000701EA04213DDB8F1000F0ED10120AB4657
:1030700005EBDB71491001FB04710090C8B22B46CF
:1030800020220299FFF755FF1FE04FF0010A0120AF
:10309000AB4605EBDB71491001FB04710090C8B22F
:1030A00008F13001CAB22B4602990BE0B40122426A
:1030B0003C0100200010014000002242B25B0008E9
:1030C00026600008FFF735FF00BF601CC4B2B442A1
:1030D000B6DB05B0BDE8F08F38B5F9A2002108468F
:1030E000FFF776FFF7480068002805DDF6A200210B
:1030F0001920FFF76DFF25E0F248006828B9F3A218
:1031000000211920FFF764FF1CE0EE480568002D40
:1031100001DB284600E06842EA490968441A04EBEA
:10312000D4704010E7490860E9A200211920FFF798
:103130004FFF0C2005230090E24802680021232065
:10314000FFF773FF0C2005230090DE480268002182
:103150002320FFF76AFFDFA200214620FFF738FF98
:10316000DD480068002805DDD7A200215F20FFF7B9
:103170002FFF25E0D848006828B9D4A200215F209D
:10318000FFF726FF1CE0D4480568002D01DB284628
:1031900000E06842D0490968441A04EBD47040103A
:1031A000CD490860CAA200215F20FFF711FF0C2063
:1031B00004230090C848026800216420FFF735FF0F
:1031C0000C2004230090C448026800216420FFF70B
:1031D0002CFFC2A20A210020FFF7FAFEC1480068B6
:1031E000002805DDB8A20A211920FFF7F1FE25E02D
:1031F000BC48006828B9B5A20A211920FFF7E8FEEB
:103200001CE0B8480568002D01DB284600E0684254
:10321000B4490968441A04EBD4704010B1490860FD
:10322000ABA20A211920FFF7D3FE0C200523009042
:10323000AC4802680A212320FFF7F7FE0C20052383
:103240000090A84802680A212320FFF7EEFEA6A2FC
:103250000A214620FFF7BCFEA5480068002805DDCE
:1032600099A20A215F20FFF7B3FE25E0A04800687D
:1032700028B996A20A215F20FFF7AAFE1CE09C480D
:103280000568002D01DB284600E06842984909687E
:10329000441A04EBD4704010954908608CA20A21AE
:1032A0005F20FFF795FE0C200423009090480268F1
:1032B0000A216420FFF7B9FE0C20042300908C48FB
:1032C00002680A216420FFF7B0FE8AA214210020C0
:1032D000FFF77EFE89480068002805DD7AA21421E8
:1032E0001920FFF775FE25E08448006828B977A209
:1032F00014211920FFF76CFE1CE080480568002DA2
:1033000001DB284600E068427C490968441A04EB66
:10331000D4704010794908606DA214211920FFF77C
:1033200057FE0C20052300907448026814212320C6
:10333000FFF77BFE0C2005230090704802681421E3
:103340002320FFF772FE6EA214214620FFF740FEF5
:103350006D480068002805DD5BA214215F20FFF79F
:1033600037FE25E06848006828B958A214215F207C
:10337000FFF72EFE1CE064480568002D01DB28469F
:1033800000E0684260490968441A04EBD4704010B8
:103390005D4908604EA214215F20FFF719FE0C2042
:1033A000042300905848026814216420FFF73DFE72
:1033B0000C20042300905448026814216420FFF775
:1033C00034FE52A21E210020FFF702FE5148006881
:1033D000002805DD3CA21E211920FFF7F9FD25E09C
:1033E0004C48006828B939A21E211920FFF7F0FDCA
:1033F0001CE048480568002D01DB284600E06842D3
:1034000044490968441A04EBD470401041490860EB
:103410002FA21E211920FFF7DBFD0C2005230090B1
:103420003C4802681E212320FFF7FFFD0C200523E6
:103430000090384802681E212320FFF7F6FD36A2CF
:103440001E214620FFF7C4FD35480068002805DD31
:103450001DA21E215F20FFF7BBFD25E0304800685C
:1034600028B91AA21E215F20FFF7B2FD1CE02C48EC
:103470000568002D01DB284600E0684228490968FC
:10348000441A04EBD47040102549086010A21E2194
:103490005F20FFF79DFD0C20042300902048026868
:1034A0001E216420FFF7C1FD0C20042300901C485E
:1034B00002681E216420FFF7B8FDFFF71FFC38BD2E
:1034C000656E4100580000202B0000002000000025
:1034D0002D0000007077410068000020656E423AC0
:1034E000000000005C0000207077423A00000000FD
:1034F0006C000020656E433A000000006000002070
:103500007077433A0000000070000020656E443A76
:1035100000000000640000207077443A00000000C2
:103520007400002008B501210820FDF725FC4FF4A8
:10353000A040ADF8000048208DF8030069464B48D4
:10354000FDF7F8F808BD01464948006828B9494820
:103550000088401C474A108002E00020454A108045
:103560004348006828B94448007810B90120424A0D
:10357000107042480078B0B93F480078012807D160
:103580003F480078401C3E4A107001203B4A1070B2
:103590003B480078022806D10020394A1070394A89
:1035A00010800220704732480068012804D10020B2
:1035B000314A1070314A10703148007801281CD10E
:1035C00030480088401C2F4A1080104600888842EE
:1035D0000ADD28480088884206DA0020284A107050
:1035E000284A10800120DDE722480088884204DD57
:1035F0000020234A1070234A10800020D2E722487E
:10360000007838B11A48006820B900201E490870B7
:103610000120704716480068012801D11A49087036
:103620000020F6E71948008840B91148006828B919
:1036300017480088401C1649088002E00020144901
:10364000088013480088C82807DD01200F4908803A
:1036500000200F490880012070470C48008801288D
:1036600002D10020094908800020F5E7000C014044
:1036700038812142320100202C0100202D01002040
:103680002E010020300100203401002038010020EC
:103690003601002010B592480068B0F5FA6F06D8E0
:1036A00000209049086090490860904908608D4862
:1036B00001688F48006802F099F88D4908608A48CF
:1036C00001688C48006802F091F88A4908608848CF
:1036D00001688948006802F0F5F988490860854862
:1036E00001688748006802F0EDF9864908607F4864
:1036F00001688548006802F079F883490860084647
:1037000001688248006802F0DDF98149086010BD57
:103710002DE9F05F0220FFF7B3F87E490968081A27
:103720007C490860084600687B490968401A7B4963
:10373000086078480068784908600320FFF7A0F81F
:103740007749096808447649086008460068754961
:103750000968401A74490860714800687149086036
:103760000420FFF78DF87149096808446F49086023
:10377000084600686E490968401A6E4908606B483F
:1037800000686B4908600520FFF77AF86A49096804
:10379000081A694908600846006868490968401ABB
:1037A0006749086064480068644908605B490968C3
:1037B0005D4A1268891A5F4A1268891A604A12685B
:1037C000881801F091FE804600225E4B01F034FD26
:1037D00004460D464A48006801F0DCFF06462246D2
:1037E0002B4601F081FC824601F04CFC4449086004
:1037F0004A4909684C4A1268891A4E4A1268891A5D
:103800004F4A1268881801F06FFE064600224D4BA1
:1038100001F012FD80464C4A4C4B01F00DFD044670
:1038200001F030FC4A4908603C4909683E4A126888
:103830001144404A12681144414A1268881801F044
:1038400053FE804600223F4B01F0F6FC04460D4635
:103850002948006801F09EFF064622462B4601F0EB
:1038600043FC824601F00EFC234908602B4909689D
:103870002D4A126811442F4A12681144304A1268C6
:10388000881801F031FE064600222E4B01F0D4FCD0
:1038900004462D4A2D4B01F0CFFC804601F0F2FB8F
:1038A0002C4908601B48006840421D490968401ABD
:1038B0001E490968084420490968441804EBD4717A
:1038C000481002F011F8114908600220FEF7D8FFF5
:1038D0001049096808440F490860BDE8F09F0000DE
:1038E000A4000020CC000020D8000020E40000202C
:1038F000D0000020DC00002084000020D400002044
:103900007C000020E0000020E8000020780000207B
:10391000EC00002038000020580000204800002063
:103920003C0000205C0000204C00002040000020F3
:1039300060000020500000204400002064000020AF
:1039400054000020000010407B14AE47E17A843F11
:10395000800000208800002010B5D9A000F0F4FA03
:103960006420FEF7BBFB10BD10B50024D84C1EE050
:103970002046FFF7D3F82046FFF7F2F82046FFF77E
:1039800015F92046FFF738F94FF4FA70FEF7A6FB59
:10399000FFF758F94FF4FA70FEF7A0FB2146CDA0CF
:1039A00000F0D2FACEA000F0CFFA04F5B474B4F56A
:1039B000E15FDDDDFFF746F910BD2DE9F84F8246E6
:1039C000DFF85CB3FFF7A4FEBAF1010F06D0BAF13D
:1039D000020F1ED0BAF1030F1AD1F0E0D1A000F00F
:1039E000B3FAD6480168D6A000F0AEFAD74801680D
:1039F000D7A000F0A9FAD9480168D9A000F0A4FA2C
:103A0000DA480168DAA000F09FFAC6A000F09CFA3C
:103A10000EE1CA48006801F067FF0746D748016811
:103A2000384602F045F8D6490860C848006801F0F9
:103A30005BFF0746D3480168384602F039F8D2499F
:103A40000860C648006801F04FFF0746CF4801688C
:103A5000384602F02DF8CE490860C448006801F0ED
:103A600043FF0746CB480168384602F021F8CA49AF
:103A70000860C3480168584601F04EFF074601F050
:103A800017FF0446C0480168584601F045FF074645
:103A900001F00EFF0546BE480168584601F03CFFA4
:103AA000074601F005FF0646BB480168584601F08D
:103AB00033FF074601F0FCFE81460320FEF70EFBB4
:103AC0002046FFF72BF82846FFF74AF83046FFF765
:103AD0006DF84846FFF790F892A000F035FAA74835
:103AE000006801F057FE07463A460B46ABA000F0CF
:103AF0002BFA92480168ADA000F026FAA1480068B0
:103B000001F048FE07463A460B46ABA000F01CFA0F
:103B10008E4801688EA000F017FA9C48006801F0FA
:103B200039FE07463A460B46A7A000F00DFA8B482F
:103B30000168A9A000F008FA9648006801F02AFE82
:103B400007463A460B46A7A000F0FEF987480168F1
:103B500087A000F0F9F98A48006801F01BFE0746CB
:103B60003A460B46A3A000F0EFF98748006801F041
:103B700011FE07463A460B46A1A000F0E5F984483D
:103B8000006801F007FE07463A460B469FA000F08A
:103B9000DBF98148006801F0FDFD07463A460B4617
:103BA0009DA000F0D1F933462A4621469DA0CDF8CC
:103BB000009000F0C9F95BA000F0C6F938E059A008
:103BC00000F0C2F99E48006801F0E4FD07463A465D
:103BD0000B469CA000F0B8F9A048006801F0DAFD9F
:103BE00007463A460B469EA000F0AEF9A248006890
:103BF00001F0D0FD07463A460B46A0A000F0A4F91C
:103C0000A448006801F0C6FD07463A460B46A2A04C
:103C100000F09AF9A648006801F0BCFD07463A4654
:103C20000B46A4A000F090F93EA000F08DF900BF73
:103C300000BFBDE8F88F70B53AA000F085F9A34841
:103C4000006801F0A7FD044622460B46A0A000F044
:103C50007BF9A348006801F09DFD044622460B460F
:103C6000A0A000F071F9A348006801F093FD04469C
:103C700022460B46A0A000F067F9A348006801F0B7
:103C800089FD044622460B46A0A000F05DF9A3483A
:103C9000006801F07FFD044622460B46A0A000F01C
:103CA00053F9A348006801F075FD044622460B460F
:103CB000A0A000F049F91BA000F046F970BD00007B
:103CC00068656C6C6F20776F726C640A000000008E
:103CD000E0E3FFFF706F7765723A25640A00000029
:103CE0003D3D3D3D3D3D3D3D3D3D3D3D3D3D3D3D04
:103CF0003D3D3D3D3D3D3D3D3D3D3D3D3D3D3D3DF4
:103D00003D3D3D3D3D3D3D3D3D3D3D3D3D3D3D3DE3
:103D10003D3D3D3D3D3D3D3D3D3D3D3D3D3D0A0043
:103D2000917E3B3E3D3D3D3D3D3D3D3D3D3D3D3D2F
:103D30003D3D3D3D3D3D3D0A000000003800002076
:103D40007468657461413A25640900003C000020F4
:103D50007468657461423A25640A000040000020DE
:103D60007468657461433A256409000044000020CA
:103D70007468657461443A25640A000028000020D4
:103D8000180000202C0000201C0000203000002023
:103D90002000002034000020240000207468657496
:103DA00061415F636D643A2566090000746865745B
:103DB00061413A25640A00007468657461425F637A
:103DC0006D643A25660900007468657461435F6339
:103DD0006D643A25660900007468657461433A258C
:103DE000640A00007468657461445F636D643A2519
:103DF000660900006572726F72413A25660900001B
:103E00006572726F72423A25660A00006572726FBF
:103E100072433A25660900006572726F72443A2552
:103E2000660A000075613A25642C75623A25642C97
:103E300075633A25642C75643A25640A0000000015
:103E40007C000020526F626F745F506F73697469F9
:103E50006F6E5F783A256609000000008000002040
:103E6000526F626F745F56656C6F636974795F78C7
:103E70003A25660A0000000084000020526F626F3D
:103E8000745F506F736974696F6E5F793A25660964
:103E90000000000088000020526F626F745F56655A
:103EA0006C6F636974795F793A25660A00000000D7
:103EB00078000020526F626F745F446966665F61CC
:103EC0006E676C653A25660A000000008C000020D1
:103ED000416E676C655F50697463683D25660900D3
:103EE00094000020416E676C655F526F6C6C3D25DD
:103EF000660900009C000020416E676C655F596197
:103F0000773D25660A000000900000204779726F17
:103F10005F50697463683D256609000098000020C1
:103F20004779726F5F526F6C6C3D25660900000027
:103F3000A00000204779726F5F5961773D25660ABE
:103F400000000000704700000FB4044910B503AA38
:103F5000029800F009FB10BC5DF814FB1C01002066
:103F60002DE9F0410646002410687529314616A552
:103F700010D0AFF30080002802DA404213A507E01A
:103F800031688A0701D512A502E0490704D511A5B9
:103F9000012401E0AFF3008000210A2206F124078A
:103FA00009E0B0FBF2FCB0FBF2F302FB1C00303086
:103FB00078541846491C0028F3D123462A46304637
:103FC000BDE8F04100F068B8000000002D000000DE
:103FD0002B000000200000002DE9F0410F460546AF
:103FE000002028622846E968884770B3252805D054
:103FF000D5E901219047286A401CF2E7E968284684
:10400000002688476C2804460AD0682C08D04C2C1F
:1040100035D06A2C31D0742C31D07A2C2FD016E0C8
:10402000E968064628468847B042044608D16C2E07
:1040300023D04FF480662846E9688847044606E0A6
:104040006C2E03D04FF4807601E01EE04026E4B1F0
:10405000A4F14100192802D8203446F400663A46FB
:10406000214628462E60FCF7BDF860B1012808D033
:10407000FF1D27F007070837B4E78026DBE7002697
:10408000D9E73F1DAEE72046B2E7286ABDE8F081D8
:1040900070477047704770472DE9F0470D469946C5
:1040A0009246044600F124080168880604D5E069B8
:1040B00021F01001216000E00120A84201DD471B32
:1040C00000E00027A1697A1902EB0900081AA06133
:1040D0002078C00602D42046AFF30080002608E016
:1040E000D4E901211AF806009047206A401C761C8A
:1040F00020624E45F4DB2078C0060AD52046AFF397
:10410000008006E0D4E9012130209047206A401C5D
:104110002062381EA7F10107F4DC07E0D4E9012191
:1041200018F805009047206A401C2062281EA5F15F
:104130000105F3DC2046AFF300802078000602D5AD
:104140000220BDE8F0870120FBE770472DE9FF4F13
:104150000C461E464FF0FF378BB0D2E90001DDF868
:1041600060800A908A46C1F30A5505B93D46002190
:1041700008464FF00000BAF1000F00F4400005DAE5
:1041800000EB80004FF4400101EA50004FEA9059E3
:10419000B9F1010F00DDB9460A9850EA4A000ED085
:1041A00044F61050A5F2FF3545432F14B8F1000F27
:1041B0001ED07542291E1EDDC9F100021CE0B8F1B7
:1041C000010F4FF0000001D0302103E0F24305E081
:1041D0002154401CB042FBDB304600220021215418
:1041E0000B99C1F80880C1E900200FB0BDE8F08F3D
:1041F000BD1B6D1CDEE74A4600DA694206A800F0E6
:1042000067FA06AB93E8070003AB83E80700504664
:104210000A9900F045FB8DE80700A0F500501F3813
:1042200000900398002D0ADD42F21F014A4608441F
:10423000002303A90390684600F0AEFD09E0A0F555
:1042400000504A461F38002303A90390684600F037
:10425000B8FD8DE807000004000C03D04FF0FF30DC
:10426000410800E01046B8F1000F03D00022009290
:1042700015461EE0751E05D400F08CF930326255EB
:104280006D1EF9D5B3460122084302D000227F1CDF
:1042900004E02078302801D100227F1E002A0997EF
:1042A00084D01DE0112D07DA00F074F93032625528
:1042B0006D1C50EA0102F5D1084302D00098C8B144
:1042C0000EE00021681E05E0235C625C635422540A
:1042D000401E491C8142F7DBAB46A81B401E0990DB
:1042E000002004F80B000B98099AC0F80880C0E978
:1042F000002B7AE711264FF0000857E72DE9F04F21
:1043000088460446D21D22F0070191B0D1E9000190
:10431000CDE90A0100F08CFE02460B98C00F01D0D7
:104320002D2007E02068810701D52B2002E0202105
:1043300001EAC000032A099001D0072A05DB0346E1
:104340004146204600F084F90BE12078800601D533
:10435000E06900E00620B8F1650F814606D0B8F1AB
:10436000660F18D0B8F1670F70D131E00020B9F1B5
:10437000110F009001DB112301E009F101030AAAEA
:1043800001A90CA8FFF7E2FEDDE90C70002609F197
:104390000105834647E001204B4600904FF000475F
:1043A0000AAA01A90CA8FFF7D1FEDDE90DB00C990E
:1043B0005D46002610B909F101000D18B9EB0500A2
:1043C00003D4C0F1FF3609F10105A5EB09002BE08C
:1043D000B9F1010F01DA4FF001090020B9F1110F15
:1043E0000090484601DD112300E003460AAA01A916
:1043F0000CA8FFF7ABFEDDE90C704D4600268346A6
:10440000207800070AD4AB4500DA5D4601A8012DEB
:1044100004DD411911F8011C302907D04F4502DA9B
:1044200017F1040F04DA012082460FE06D1EEEE75B
:10443000002F02DCED1B3E4403E0781CA84200DDA7
:104440007D1CB81B00F1010A4FF0004720780007DF
:1044500003D4AA4501DB4FF0FF3A0021B7F1004F2A
:104460000DF143088DF8431024D002202B23002F98
:1044700001DA7F422D230A21021EA0F1010000DC97
:104480005FB197FBF1FC97FBF1F201FB1C7C174637
:104490000CF1300C08F801CDEEE7A8F10100037033
:1044A0002188090501D5452100E06521A0F1010819
:1044B00000F8011C09980FA9A1EB0807FF1D00B126
:1044C0000120411901EBEA70A1693844081A401E25
:1044D000A0612078C00602D42046AFF3008009987E
:1044E00028B1D4E901219047206A401C206220783D
:1044F000C00622D52046AFF300801EE0002E04DB6C
:10450000B34502DD01A8805D00E03020D4E901213F
:104510009047206A401C2062761CAAF101005FEAE5
:10452000000A0AD100F032F8C0680168405CD4E9A2
:1045300001219047206A401C2062281EA5F1010538
:10454000DCDC07E0D4E9012118F8010B9047206A70
:10455000401C2062381EA7F10107F3DC2046AFF3B0
:104560000080032011B041E6074B70B50D467B4437
:1045700000F05BF80446284600F01CF910B14FF03B
:10458000FF3070BD204670BD9DDBFFFF00487047C7
:104590005C05002030B5B0F10A024FEA900E71F1CF
:1045A00000034EEA817EB0EB0E0061EB91014FEA11
:1045B000101E4EEA017E10EB0E0041EB11114FEA86
:1045C000102E4EEA016E10EB0E0041EB11214FEA66
:1045D000104E4EEA014E10EB0E0041EB1141401817
:1045E00041F100014FEAD00040EA41704FEAD101A9
:1045F00010EB80054FEA810444EA907444EB010417
:104600006D1944EB0404521BA3414FF0000348BF53
:104610000A3200D530BD401C41F1000130BD000020
:1046200001694A1C02610878704700B58FB0CDE976
:1046300001310021059105497944CDE90310114666
:104640006846FFF7C9FC0FB000BD0000E5FFFFFFA3
:104650002DE9F0411F46044603260168072A01F4AC
:10466000006004DB08B116A505E016A503E008B15B
:1046700015A500E015A521F010002060A069C01E5E
:10468000A0610FB1401EA0612046AFF300804FB182
:10469000D4E9012138469047206A401C2062C01CA2
:1046A000206206E0206AFAE7D4E9012115F8010B3F
:1046B0009047761EF8D22046AFF30080BDE8F08127
:1046C0004E414E006E616E00494E4600696E6600B6
:1046D0002DE9F047814616468AB0354878440DC822
:1046E0008DE80D0032487844801C03AC0DC884E886
:1046F0000D0041F69B300844372190FBF1F290FB0E
:10470000F1F5A5F1800501FB12041B3C02D56442C2
:10471000012000E00020DFF898A080460027FA443E
:10472000AAF1BE0A0EE0E0070AD03246684607EB5F
:10473000470101230AEB810100F043FB8DE80700EC
:1047400064107F1C002CEED1194F7F44AE3F19E05E
:10475000E80715D007EB04100DF1180A90E80E00D9
:104760008AE80E00C068F04201D1981908903246DC
:10477000012306A903A800F024FB03AB83E807008C
:104780006D10641C002DE3D14FF0010332466946E1
:10479000B8F1000F03A802D000F0FEFA01E000F02B
:1047A00010FBC9E90001C9F808200AB0BDE8F0878C
:1047B000B41F0000007B00F0800070470048704785
:1047C0003C0500207546FFF7F9FFAE460500694637
:1047D000534620F00700854618B020B5FBF768FE69
:1047E000BDE820404FF000064FF000074FF00008F2
:1047F0004FF0000B21F00701AC46ACE8C009ACE873
:10480000C009ACE8C009ACE8C0098D46704710B5D6
:104810000446AFF300802046BDE81040FBF7FFBC24
:104820004FF0013C50F8042B51F8043B9A4221D13F
:10483000A2EB0C03934313EACC1317D150F8042BCB
:1048400051F8043B9A4215D1A2EB0C03934313EAAF
:10485000CC130BD150F8042B51F8043B9A4209D1E8
:10486000A2EB0C03934313EACC13DBD04FF0000010
:10487000704700BFD01A01BAB1FA81F101F01801F6
:1048800022FA01F0CB40C1F12001DBB2C0B2C01A64
:104890002CFA01F3D11A914311EAC311E6D1704702
:1048A0005FEA400C08BF91F0000F4FEA8C234FEAFB
:1048B000C12243EA51514FEA1C5018BF00F5F040A5
:1048C0004FEA300018BF41F000415FEA6C5C00F035
:1048D0002980BCF1FF3F08BF40F080407047130CB7
:1048E00006BF12044FF0100C4FF0000C130E04BF63
:1048F00012020CF1080C130F04BF12010CF1040C8E
:10490000930F04BF92000CF1020CD30F04BF5200AE
:104910000CF1010C11464FF00002A0F11F00A0EBBA
:104920000C00704711F0004F08BF704731F0004194
:104930003FF4D5AF0B0C06BF09044FF0100C4FF03D
:10494000000C0B0E04BF09020CF1080C0B0F04BF86
:1049500009010CF1040C8B0F04BF89000CF1020C4F
:10496000CB0F04BF49000CF1010CCCF12003A0EBEC
:104970000C0022FA03F302FA0CF241EA030100F1FF
:104980000100704720F07F4C80EA030023F07F474E
:10499000ACEB070303F57C5300F0004003F1FF0389
:1049A0002DE980494FEA154B09B44FEA144325EA33
:1049B0000B4E24EA03480FF2042606EB132749089E
:1049C0003E785FEA320203FB0667C7F5000707FB84
:1049D00006F64FEA54374FEAD64606F1020607FBC1
:1049E000066CCCF1005C4FEA1C472CEA074C07FB35
:1049F00006F40CFB06F504EB15464FEA961634BF99
:104A000000204FF000404FEAD13706FB07FC4FEA89
:104A10001C4C0CFB0BF7D21B03FB0CF761EB0701E3
:104A20000CFB0EF7B0EB074072EB17420CFB08F7DC
:104A300034BFA2EB0742B2EB074261EB17414FEAEA
:104A40000C444FEA910706FB07FC4FEA1C4C0CFB99
:104A50000BF7B0EBC74072EB573203FB0CF734BFD8
:104A6000A2EBC742B2EBC74261EB57310CFB0EF72A
:104A7000B0EBC70072EB57720CFB08F734BFA2EB28
:104A8000C702B2EBC70261EB5771039F4FEA816126
:104A900041EA921104EBCC044FEAD1374FEA82622B
:104AA00006FB07FC42EA90124FEA80604FEA1C4C7A
:104AB0000CFB0BF7D21B03FB0CF761EB07010CFBA4
:104AC0000EF7B0EB074072EB17420CFB08F734BF50
:104AD000A2EB0742B2EB074261EB17414FEA8C555C
:104AE0004FEA910704EB9C2406FB07FC4FEA1C4CA1
:104AF0000CFB0BF7B0EBC74072EB573203FB0CF724
:104B000034BFA2EBC742B2EBC74261EB57310CFB9B
:104B10000EF7B0EBC70072EB57720CFB08F734BF0F
:104B2000A2EBC702B2EBC70261EB577115EB4C2544
:104B30004FEA816141EA92114FEA82624FEAD1372E
:104B400042EA901206FB07FC44F100044FEA806041
:104B50004FEA1C4C0CFB0BF7D21B03FB0CF761EB71
:104B600007010CFB0EF7B0EB074072EB17420CFB92
:104B700008F734BFA2EB0742B2EB074261EB1741E3
:104B800015EB1C154FEA813141EA92414FEA82321E
:104B900042EA90424FEA80304FEA0C7644F100043A
:104BA00048EA03434EEA0B484FF0000EB2EB080C04
:104BB00071EB030724BF624639464EEB0E0E4FF0F1
:104BC000000B0018524149414BEB0B0BB2EB080CA8
:104BD00071EB03077BF1000B24BF624639464EEBB5
:104BE0000E0E4FF0000B0018524149414BEB0B0BDE
:104BF000B2EB080C71EB03077BF1000B24BF62469C
:104C000039464EEB0E0E51EA020718BF46F0010678
:104C100016EB0E7655F1000254F1000103D5BDE804
:104C20008901BDE80088BDE88901BDE80048B619E2
:104C3000524141EB0101A3F10103704780807F7E67
:104C40007D7C7B7A79787776767574737271717002
:104C50006F6E6E6D6C6C6B6A6A69686867666665B4
:104C60006464636362616160605F5F5E5E5D5D5C42
:104C70005C5B5B5A5A5959585857575656555555B3
:104C80005454535352525251515050504F4F4F4E13
:104C90004E4D4D4D4C4C4C4B4B4B4A4A4A49494961
:104CA00048484847474747464646454545444444A3
:104CB000444343434342424242414141002B9C46CC
:104CC00030D477002BD01CB54FEA370703B44FF030
:104CD00010004FF01001BAF1000F06D0BCF1000F28
:104CE000DCBF40F0080040F008014FF000000FBCAE
:104CF000BDE810400BF1010BBBF1010F08BF5FEAEB
:104D0000170722BF12F1010211F101014FF000411A
:104D100043F1000300F0004043EA00007047F9D37C
:104D20005708D0E746EA064613F1400F4FEA164609
:104D30001FDD13F1200FDFBF16430A460021203389
:104D40005B42BED0C3F1200746EA064602FA07F7E7
:104D50004FEA164646EA0706C3F1200722FA03F295
:104D600001FA07F721FA03F14FF0000342EA0702C4
:104D7000A7E746EA020646EA06464FEA164646EA2C
:104D80000106BCBF46EA0646360C4FF000034FF062
:104D900000024FF0000194E72DE9804C9A469346BB
:104DA00070B491E8380007C831EA400C48BF34EAD3
:104DB000430C03D5FFF7E6FDFFF780FFF0BCBDE82D
:104DC000008C2DE9804C9A46934670B491E83800E7
:104DD00007C810F0804F08BF13F0804F03D100F0D8
:104DE00005F8FFF76BFFF0BCBDE8008C20F07F47B3
:104DF00080EA030023F07F4C07EB0C03A3F57C5300
:104E000000F00040A3F1FE0392F0000F00F0B38029
:104E100095F0000F00F077802DE901494FEA11402D
:104E20004FEA144621EA004800FB06FC24EA064744
:104E300008FB06F607FB08F800FB07F718EB064827
:104E40004CEB164C4FEA124B18EB07484FEA15464D
:104E50004CEB174022EA0B4E0BFB06FC25EA0647FB
:104E60000EFB06F607FB0EFE0BFB07F71EEB064ECE
:104E70004CEB164C4FF000061EEB074E4CEB174B5D
:104E800018EB0B0840F1000018EB0E0B58EB000874
:104E900040F100008F1A4FF000013CBFC943661B70
:104EA00014BFB5EB040C00213CBFC943F61B4FEA0D
:104EB00017444EEA8E0E27EA04454FEA1C4704FBCE
:104EC00007622CEA074C05FB07F70CFB05F604FB11
:104ED0000CFC16EB074642EB174216EB0C4642EB76
:104EE0001C421BEB060658EB0202414146EA9E06B5
:104EF00001D5BDE80189B619524141EB0101A3F189
:104F00000103BDE801894FEA14454FEA114724EA3D
:104F1000054621EA074C05FB07F406FB07F70CFBE7
:104F200006F105FB0CFC11EB074144EB17444FEA7B
:104F3000124711EB0C4144EB1C4422EA074C05FBE1
:104F400007F206FB07F70CFB06F605FB0CFC16EB5D
:104F5000074642EB174216EB0C4642EB1C456A181B
:104F600054F1000148BF7047B619524141EB0101AD
:104F7000A3F10103704795F0000F37D04FEA1142BB
:104F80004FEA144721EA024624EA074C02FB07F1E4
:104F900006FB07F70CFB06F402FB0CFC14EB0744C2
:104FA00041EB17414FEA154714EB0C4441EB1C4110
:104FB00025EA074C02FB07F506FB07F70CFB06F694
:104FC00002FB0CFC16EB074645EB174516EB0C46AF
:104FD00045EB1C42121951F1000148BF7047B61948
:104FE000524141EB0101A3F1010370474FEA14451F
:104FF0004FEA114724EA054621EA074C05FB07F171
:1050000006FB07F70CFB06F24FF0000605FB0CFC55
:1050100012EB074241EB174112EB0C4251EB1C41E2
:1050200048BF7047921841EB0101A3F1010370479B
:10503000490050EAC12018BF04204A0D18BF40F0B3
:10504000010040F2FF72B2EB515F08BF40F0020076
:10505000012808BF0520704710B500290AD008783C
:10506000002807D005487844FFF7DAFB002801D074
:10507000002010BD0248784410BD000066160000F4
:105080005E16000021F00042A2F16052B2F5801FCE
:1050900001F0004328BFD2F17F6C0BD95FEA001CFE
:1050A00043EAC20242EB507018BF704728BF20F09D
:1050B00001007047B2F5801FBCBF184670474FEA29
:1050C000410C1CF5001F02D2084600F0ECBC70B584
:1050D00000F021FA00000089FFF7F6BF4FF0004012
:1050E000A0F580007047000010B591EA030F48BF9B
:1050F00083F0004300F16C82841A71EB030C05D23B
:10510000121943EB0C03001B61EB0C01DFF824E1E7
:105110004FEA1154A4EB135C1EEA430F18BF9EEA3A
:10512000445F73D023EA0E03DCF1200E21EA045120
:1051300043F4801332D322FA0CFE10EB0E0023FA54
:105140000CFE41EB0E01CCF1200E03FA0EFE10EB2B
:105150000E0051F10001B1F5801FCCF1200E32D2CA
:1051600001EB045112FA0EF2BDE8104058BF70472F
:10517000401C38BF5FEA420218BF7047002814BFC6
:1051800020F0010041F100014FEA410313F5001F37
:1051900038BF7047A1F1C04100F00BBA012A43EBC0
:1051A0000302ACF1200CDCF11F0E32BF4FF0000EF9
:1051B00023FA0CF310EB030041EB0451B4EB115F45
:1051C000D0D0A1EB045101F5801149085FEA30000D
:1051D00001EB04510ED350F1000038BF12FA0EFE5D
:1051E00008D1BDE81040C9E7401C38BF5FEA420261
:1051F000CAD1C3E7BDE810404FEA410313F5001FD1
:1052000038BF7047A1F1C04100F0D3B99EEA445FB6
:1052100008D011EA5E0FBDE8104004BF01F0004164
:1052200000207047BDE8104070B500F074F900BF71
:1052300064FBBE3E0000E0FF2DE9C04130B4DFF862
:10524000A0C23CEA111418BF3CEA131400F0EC8031
:1052500081EA03051CEA111444EAD57418BF1CEA5C
:10526000131500F0C780A4EB05044FF0004545EA94
:10527000C12145EAC32341EA505143EA525304F1A4
:105280007F74994204F500344FEAC0204FEAC222ED
:1052900008BF904200F09C804FEA13650FF2401661
:1052A000765D4FEA134506FB05F7C7F1807706FBED
:1052B00007F74FEAD737A7FB03687642C8F580386F
:1052C000A7FB06CE38BFA8F1010807FB08E64FF0A0
:1052D000000EA6FB028CE6FB03CEDCF1000CCEF147
:1052E000004E38BFAEF1010EA6FB0C584FF0000780
:1052F0004FF00005E6FB0E87A1FB08C6A0FB07CE1A
:1053000016EB0E0645F10005E1FB076515F1E04ED1
:105310007EBFA4F580345FEA46066D4116F1800732
:1053200045F100054FEA17274FEA066647EA056789
:10533000A6F1DE46B6F1805F4FEA15251FD9384643
:1053400024F0010C05EBC471BCF1FE6F01EB0C11F4
:1053500002D8F0BCBDE8008124425CBF01F5801E8C
:105360009EEAC47F02D4F0BCBDE80081244238D458
:10537000F0BCA1F1C041BDE8004100F01AB94FEA0C
:10538000D22242EA43524FEAD323A7FB02864FEAD6
:10539000D02040EA415007FB03661EEA0E0F4FEA99
:1053A000D12105FB026658BFA6EB0056B6EB0056AE
:1053B0004FEA520E4EEAC37E18EB0E0E56EB530E1A
:1053C000BDD518EB02085E417F1C55F10005B6E71C
:1053D0004FF480154FF000074FF000064FF0000823
:1053E000ADE7F0BC4FF0000001F1C04101F0004119
:1053F000BDE8008111EA0C1F0CEA131500D00CE087
:1054000013EA0C1F00F025804FF00000F0BC81EA89
:10541000030101F00041BDE80081F0BCBDE800419E
:1054200081EA030100F0C5B8F0BCBDE8004170B5E9
:1054300000F071F8097EFC3E00F007B881EA030134
:105440004FF0000001F00041704781EA030100F0D5
:10545000B0B8F0BCBDE800414FF0000021497047F2
:10546000FFFDFBF9F7F5F4F2F0EEEDEBE9E8E6E429
:10547000E3E1E0DEDDDBDAD8D7D5D4D3D1D0CFCDB0
:10548000CCCBCAC8C7C6C5C4C2C1C0BFBEBDBCBBE9
:10549000BAB9B8B7B6B5B4B3B2B1B0AFAEADACABE4
:1054A000AAA9A8A8A7A6A5A4A3A3A2A1A09F9F9EBE
:1054B0009D9C9C9B9A999998979796959594939370
:1054C000929191908F8F8E8E8D8C8C8B8B8A898907
:1054D000888887878685858484838382828181808A
:1054E0000000FF070000F87F10F0004248BF404274
:1054F000B0FA80F310FA03F10AD0C3F11D0303F5EB
:1055000080634FEA415002EB035202EBD121704716
:105510004FF0000070470EF1020E2EF0030E5EF801
:10552000046B364205D4012A43EB030515F5001F31
:1055300012D8012841EB010C1CF5001F0CD80ED12C
:105540004FEAD17C15F5001F0CEB4C0C0CF1020C52
:1055500008BF4CEBD37C04E04FF0080C01E04FEAAD
:10556000D37C0CEB4C0526FA05F606F00706B6F1DF
:10557000040C06D20EEB860CBDE870404CF0010C1A
:105580006047DFE80CF0090B02024FF000414FF0DA
:105590000000A1F5002170BD19461046012851EB0D
:1055A000010418BFD4F5001484BF002001F00041AD
:1055B00070BD0808A0F500114FEA310170470000E6
:1055C00010B591EA030F48BF83F000433FF594AD57
:1055D000841A71EB030C07D212198CF0004C43EBC8
:1055E0000C03001B61EB0C01DFF8A4E14FEA11543E
:1055F000A4EB135C1EEA430F18BF9EEA445F00F061
:10560000B08023EA6E03524221EA0451C3EB6E03D9
:1056100038BF5B1EDCF1200E25D322FA0CFE10EB06
:105620000E0043FA0CFE41EB0E01CCF1200E03FA02
:105630000EFE10EB0E0051F10001CCF1200E29D42A
:1056400012FA0EF201EB0451BDE8104058BF70474A
:10565000401C1CBFB2F1004F704700280CBF491C12
:1056600020F00100704712EB020E43EB030218BF5B
:105670004FF0010E4EEA4202ACF1200CDCF11E0E9E
:1056800054D943FA0CFE10EB0E0051F1FF31CCF16E
:105690001E0ED5D50EF1010E12FA0EFE404141EB61
:1056A000010101EB445C5FEA5C5C10D910EBDE7039
:1056B00001EB045138BFBEF1004FBDE8104018BFE8
:1056C000704700280CBF491C20F00100704730D201
:1056D0004FEAD42C11F5001124F400641BD0B1FA68
:1056E00081F20B3AA41AA41ED2F12003914030FAA1
:1056F00003F31943904001EBCC71002C01EB0451F2
:10570000BDE81040A8BF704701F1C0414FF0000054
:1057100001F000417047B0FA80F310FA03F100D1B4
:1057200010BDE41A173C4805C90AE4E701EB04512F
:1057300010BD491001EB0451BDE810404FEA3000A4
:1057400002E04FF0000170474A0008BF0042F8D065
:10575000B2F5001F28BF704701F000414FF0000074
:1057600070479EEA445F07D011EA5E0FBDE8104023
:1057700004BF002100207047BDE8104070B5FFF75E
:10578000CAFE00BF40DFF63E83F00041104670477E
:105790000000E0FF43004FEAD30C4FEA3C0C4340CB
:1057A0001FBF40070CF1605113F0FE4F70471CF013
:1057B000006F03D100200CF0004170470CF0004353
:1057C00043EA507010B540EACC0000F026F900BF63
:1057D000000000924FEA0001FFF7EBBE4FF00041DE
:1057E0004FF00000A1F500217047000090EA010F82
:1057F00048BF81F0004100F16C81421A3CBF801A21
:1058000089184FEAD0524FF07F4C1CEA410FA2EBAF
:10581000D15318BF9CEA026F00F03B804FF0004C60
:105820004CEA00204CEA012121FA03FC10EB0C0C9D
:105830001ED202F1FF325FEA1C2040EBC25038BF9B
:1058400070471CF07F0F4FEA400C18BFBCF17F4F30
:1058500038BF7047C3F12003994008BF20F0010012
:10586000BCF17F4F38BF7047A0F1C04000F01BB9BA
:105870004FEA3C00000A40EBC25028BF1CF0FF0F6B
:105880004FEA400CE6D018BFBCF17F4F38BF7047DD
:10589000EAE79CEA026F05D010EA5C0F08BF00F04F
:1058A0000040704710B500F0B8F800BF64FBBE3E82
:1058B00041000B0ED3F19E0208D950F400034FEAC9
:1058C000032323FA02F048BF4042704710B500F0AE
:1058D000A4F800BF49922480002070476FF0004276
:1058E00082EA20007047000010F0004148BF4042AB
:1058F000B0FA80F310FA03F2C3F19D030BD051EA22
:10590000C35101EB1220530638BF704700F101006C
:1059100008BF20F0010070474FF47F0C1CEAD01242
:105920001EBF1CEAD11392EA0C0F93EA0C0F00F091
:10593000478090EA010F48BF42F480724FF0004C5C
:105940004CEA00204CEA012102EB0302A0FB011308
:10595000A2F50002002918BF43F001035B0028BF35
:105960004FEA330342EB22425FEA132C4CEBC25066
:105970002EBFBCEB436FB2F57C0F70474FEA036C50
:10598000BCF1004F08BF20F00100B2F57C0F38BF1A
:1059900070470BD582F0FF0212F5803FC8BF7047F9
:1059A00000F1C040D8BF00F00040704700F5000C87
:1059B0005FEA4C0C48BF7047B0F1C04000F073B8CC
:1059C00090EA010F0CEAD11348BF42F4807262459D
:1059D00038BF634504D280EA010000F00040704700
:1059E00010B500F01AF800BF8900013E00F007B8BA
:1059F00000F009B85FEA410C5FEA1C6C08D080EA4D
:105A0000010000F050B85FEA400C5FEA1C6CF6D170
:105A10004FF00040A0F5800070470EF1020E2EF00E
:105A2000030E5EF8044B244204D44FEA4102B2F163
:105A30007F4F11D84FEA4003B3F17F4F0CD80ED1FE
:105A40004FEAD07CB2F17F4F0CEB4C0C0CF1020C06
:105A500008BF4CEBD17C04E04FF0080C01E04FEAAA
:105A6000D17C0CEB4C0324FA03F404F00704B4F1EA
:105A7000040C06D20EEB840CBDE810404CF0010C77
:105A80006047DFE80CF0070802024FF00040A0F585
:105A9000800010BD0846420018BFD2F1807288BF56
:105AA00000F0004010BDFF2141EAD050C005704712
:105AB00080F0004090EA010F7FF59FAE81F0004139
:105AC00000F007B890EA010F48BF81F000413FF5B0
:105AD00094AE421A04D882F00042A0EB02001144B6
